:020000020000FC
:1000000014C013C112C111C104C10FC10EC102C17C
:1000100002C102C10AC109C108C107C106C105C1A7
:1000200004C1FBC0FBC001C1FFC0F894AFE5ADBF88
:10003000B1E0BEBF002711960E93A036E9F718D0A5
:1000400001E00BBB01E61FEF18BB1A95E9F745D09D
:10005000FACFE199FECF00270CBB1EBB2DBBE29A65
:10006000E19A0895E199FECF1EBBE09A2DB3089561
:10007000F8941127F7DF21BF00E806BD00E00F70FC
:1000800006BD02E006B903E001B900E808B903E0E3
:100090000ABB0FEF07BB0EE101BB00270BBB08BB80
:1000A00000E602BB00270FBD0AE00EBD11271DBDF3
:1000B0001CBD17E00FEC1BBD0ABD00E409BF0964BD
:1000C00001BD03E310E002D07894089512B909B994
:1000D00008E10AB90AE003B908955D9BFECF0CB9A7
:1000E00008955F9BFECF0CB10895F89400270BBBD9
:1000F00008BB0ABB07BB01BB00E602BB10E11BBF8C
:1001000010E11ABF10E418BF10E415B9A89504B7A0
:1001100001B5086101BD00E001BD03E005B700675E
:1001200005BF789400008895F89405B70F7805BF4F
:1001300011271BBF15B99CDF0895EE24FF1841E17C
:10014000001F111F4A9509F40895EE1CFF1CE21AC6
:10015000F30A20F4E20EF31E8894F2CF0894F0CF55
:10016000222738E0169508F4200F279517953A9521
:10017000D1F70895112309F40895000F1A95D1F7C6
:100180000895E4E2FEE0FF24E02E332319F444272F
:10019000689412C0313019F44FEF68940DC05FEFCE
:1001A000E894253008F055272F933052032F15E09F
:1001B000D7DFE10FF21F2F91F0F8CE0DDE1DDE1913
:1001C000F0FE459149932A9559F0F0FE5395189405
:1001D000F0FE5F3FA9F3553099F735975527F0CFDB
:1001E000E89408951EF035910EF43191332311F403
:1001F000E894089525E0FF93EF9340F94F930F9310
:10020000C0DF0F914F9140FBEF91FF9126E0020F6D
:10021000E9CF189518951895189518950F9301B56D
:0C022000006401BD0F9118951895FFCFE8
:100E24000000000000000079000000700070001451
:100E34007F147F14122A7F2A2462640813233649FC
:100E44005522050050600000001C22410000412290
:100E54001C00082A1C2A0808083E08080005060089
:100E6400000808080808000606000002040810200C
:100E74003E4549513E00217F01002143454931420D
:100E8400415169460C14247F04725151514E1E295C
:100E9400494906404748506036494949363049492E
:100EA4004A3C0036360000003536000000081422A3
:100EB40041141414141441221408002040454830ED
:100EC40026494F413E3F4444443F7F494949363EC9
:100ED400414141227F4141221C7F494949417F4888
:100EE4004840403E414145267F0808087F00417F35
:100EF40041000201417E407F081422417F0101012B
:100F0400017F2010207F7F1008047F3E4141413E35
:100F14007F484848303E4145423D7F484C4A313144
:100F24004949494640407F40407E0101017E7C02A0
:100F340001027C7F020C027F631408146360100FAB
:100F44001060434549516100007F4141201008046D
:100F54000241417F000010204020100101010101E5
:100F64000040201000021515150F7F0911110E0EF7
:100F7400111111020E1111097F0E1515150C083FE0
:100F8400484020081415151E7F0810100F00115F2B
:100F940001000201115E00007F040A1100417F017B
:100FA400001F100C100F1F0810100F0E1111110E3E
:100FB4001F14141408081414001F1F081010080923
:100FC40015151502107E1101021E0101021F1C02DB
:100FD40001021C1E0106011E110A040A111805054E
:100FE400051E1113151911000836410000007F0079
:0C0FF40000004136080004080804080052
:00000001FF
